:100000000C944C000C9456000C9456000C94560022
:100010000C9456000C9456000C9456000C94560008
:100020000C9456000C9456000C9456000C945600F8
:100030000C9456000C9456000C9456000C945600E8
:100040000C9456000C9456000C9456000C945600D8
:100050000C9456000C9456000C9456000C945600C8
:100060000C9456000C9456000C9456000C945600B8
:100070000C9456000C9456000C9456000C945600A8
:100080000C9456000C9456000C9456000C94560098
:100090000C9456000C94560011241FBECFEFD4E0F0
:1000A000DEBFCDBF0E9423010C94D4010C9400004C
:1000B0002A9A2C9808952C9A2A9808952C9A2A9A6C
:1000C00008952B982E9A08952B9A2E9808952E9A7B
:1000D0002B9A08955B98539AEFE7F0E08081816056
:1000E000808380B7807880BF0895EFE7F0E090814B
:1000F00021E030E002C0220F331F8A95E2F7922BF5
:1001000090830895EFE7F0E0908121E030E002C0B5
:10011000220F331F8A95E2F7209529232083089523
:10012000815080937D005B9A80E001C08F5F00B6B4
:1001300005FEFCCF5B9808950E945E000E94670058
:100140000895009721F08130910521F402C067BD28
:10015000089568BD089584B18C6584B980E090E00D
:1001600060E00E94A10081E090E060E00E94A100B8
:100170000E945E000E9467000895279A509A84B5F5
:10018000816084BD84B5806A84BD85B5826085BD8B
:10019000089581E090E064EB0E94A10080E090E08F
:1001A00068E70E94A1000E9464000E945800089520
:1001B00081E090E064EB0E94A10080E090E068E7BD
:1001C0000E94A1000E9461000E945B00089581E0EE
:1001D00090E064EB0E94A10080E090E068E70E945C
:1001E000A1000E9461000E945800089581E090E003
:1001F00060EA0E94A10080E090E064E60E94A10015
:100200000E9464000E945B00089581E090E062ED2E
:100210000E94A10080E090E069E60E94A1000E9497
:1002200061000E945800089581E090E068E70E9414
:10023000A10080E090E064E60E94A1000E946100BD
:100240000E9458000895FF920F931F93DF93CF935E
:100250000F92CDB7DEB70E946A000E94BD000E94D7
:10026000AB0000E010E083E00E949000F82E8FECDD
:1002700097E00197F1F700C0000081E00E94900034
:10028000982FEFECF7E03197F1F700C0000085E020
:1002900099830E949000EFECF7E03197F1F700C0EE
:1002A00000009981FF2DF33030F0933008F440C006
:1002B0008330B8F556C0933008F04AC0833050F50B
:1002C000143050F40E940501EFEDFEE23197F1F792
:1002D00000C000001F5F4FC0002351F40E94D800EF
:1002E0008FE19EE40197F1F700C0000001E042C0F9
:1002F000013009F040C00E94F600EFEFFCE73197B3
:10030000F1F700C000000E94D8008FE59DE601973C
:10031000F1F72DC00E94C900EFEFFCE73197F1F72C
:1003200026C00E94C9008FE19EE40197F1F71FC02B
:10033000833038F40E94C900EFE7FEE33197F1F70C
:1003400016C00E94C9008FE895E60197F1F70FC02B
:10035000833038F40E941401EFE1FEE43197F1F7A5
:1003600006C00E94E7008FE79EE30197F1F700C007
:10037000000000E010E00E949C00EFE2F5E73197FA
:10038000F1F700C000006FCFE1E6F0E080E8808385
:100390001082A89584B7877F84BFE0E6F0E0808173
:0C03A0008861808310820895F894FFCFDC
:00000001FF
